:020000040800F2
:10000000005000209D1D0008E51D0008E51D0008AA
:10001000E51D0008E51D0008E51D000800000000C2
:10002000000000000000000000000000250400089F
:10003000E51D0008000000008D040008D50400083C
:10004000E51D0008E51D0008E51D0008E51D000888
:10005000E51D0008E51D0008E51D0008E51D000878
:10006000E51D0008E51D0008E51D0008E51D000868
:10007000E51D0008E51D0008E51D0008E51D000858
:10008000E51D0008E51D0008E51D0008E51D000848
:10009000E51D0008E51D0008E51D0008E51D000838
:1000A000E51D0008E51D0008E51D0008E51D000828
:1000B000E51D0008E51D0008E51D0008E51D000818
:1000C000E51D0008E51D0008E51D0008E51D000808
:1000D000E51D0008E51D0008E51D0008E51D0008F8
:1000E000E51D0008E51D0008E51D000800000000F2
:1000F0000000000000000000000000000000000000
:0C01000000000000000000005FF808F1A3
:1001100010B5054C237833B9044B13B10448AFF341
:1001200000800123237010BD940000200000000017
:100130000C01000808B5034B1BB103490348AFF39A
:10014000008008BD00000000980000200C0100089D
:1001500008B50B4C01224FF40051204601F062FD1E
:100160004FF4FA7000F042FF204600224FF4005195
:1001700001F058FD4FF4FA7000F038FFEAE700BFD5
:100180000010014008B50B4C00224FF4804120467E
:1001900001F048FD4FF4FA7000F028FF20460122DC
:1001A0004FF4804101F03EFD4FF4FA7000F01EFF65
:1001B000EAE700BF0010014010B50C4C82B02046A9
:1001C00001224FF4804101F02DFD20460122102331
:1001D0004FF4C04401A9ADF804408DF806208DF815
:1001E000073001F0A1FC02B010BD00BF00100140BB
:1001F00008B50121102001F0A9FB0121042001F024
:10020000A5FB0121084601F0A1FB0121022001F01C
:10021000A9FB01214FF4805001F098FB01214FF41C
:10022000007001F093FB01210846BDE8084001F091
:1002300081BB00BF024A936801339360704700BFDF
:10024000B0000020034A916893685B1A8342FBD395
:10025000704700BFB0000020014B9868704700BF96
:10026000B00000203A4B3B4A196841F00101196087
:1002700059680A405A601A6822F0847222F4803267
:100280001A601A6822F480221A605A6882B022F436
:10029000FE0200214FF41F005A6098600091019106
:1002A0001A6842F480321A601A4603E0009BB3F5E4
:1002B000A06F09D0136803F400330193009B01334E
:1002C0000093019B002BF1D0214B1B6813F40033EA
:1002D00018BF01230193019B012B05D01E4B4FF04A
:1002E00000629A6002B070471C4A194B116841F0D5
:1002F00010011160116821F003011160116841F0D3
:10030000020111605A685A605A685A605A6842F489
:1003100080625A605A6822F47C125A605A6842F429
:10032000E8125A601A6842F080721A601A689201E4
:10033000FCD55968064A21F003015960596841F01B
:1003400002015960536803F00C03082BFAD1C5E78A
:10035000001002400000FFF800ED00E00020024025
:10036000114A536803F00C03082B0ED153685168EF
:10037000C3F38343C90303F1020310D55268920308
:100380000DD40A4A02FB03F300E0084B064A084971
:100390005268C2F303128A5CD3400B617047054A6E
:1003A00002FB03F3F2E700BF0010024000127A00E4
:1003B0000000002000093D000000000000000000D7
:1003C00082B0002301934FF0BF0383F31188BFF382
:1003D0006F8FBFF34F8F019B002BFCD002B0704793
:1003E00006480068006880F3088862B661B6BFF30B
:1003F0004F8FBFF36F8F00DF00BF000008ED00E0FC
:1004000010B421F001014FF08074054B40F8202C0E
:1004100040E9021440F80C3C5DF8044B403870474A
:10042000C10300080A4B19680868B0E8F00F80F3B0
:100430000988BFF36F8F4FF0000080F311884EF0F2
:100440000D0E7047AFF30080AFF30080AFF3008074
:1004500048010020704700BF4FF0BF0383F31188AD
:10046000BFF36F8FBFF34F8F024A136801331360DE
:10047000704700BF14000020034A1368013B13605B
:100480000BB983F31188704714000020EFF3098043
:10049000BFF36F8F0E4B1A6820E9F00F10602DE943
:1004A00008404FF0BF0080F3118800F0F7FD4FF0D7
:1004B000000080F31188BDE8084019680868B0E8BA
:1004C000F00F80F30988BFF36F8F7047AFF30080A0
:1004D0004801002008B54FF0BF0383F31188BFF334
:1004E0006F8FBFF34F8F00F0C9FD18B1034B4FF072
:1004F00080521A60002383F3118808BD04ED00E0E8
:1005000030B4064B064D0748074C002207211A60FD
:100510002A600460196030BC704700BF10E000E042
:1005200018E000E014E000E03F190100114B1A68E8
:1005300010B542F47F021A601A6842F07F4282B01E
:100540001A60FFF7DDFF0C4B00241C60FFF748FF2B
:1005500000F0A4FD01944FF0BF0383F31188BFF3B3
:100560006F8FBFF34F8F019B002BFCD0002002B098
:1005700010BD00BF20ED00E01400002000F10803D2
:100580004FF0FF310022816002604360C0E9033315
:10059000704700BF00230361704700BF43680268D3
:1005A00010B49C688C609C684B60013261609960FB
:1005B0005DF8044B08610260704700BF30B40D68FD
:1005C0006B1C11D000F1080200E01A4653681C6849
:1005D000AC42FAD904684B60013499608A6051607A
:1005E0000861046030BC704702695368F2E700BFDD
:1005F00042688168036910B4916081685C684A60F0
:100600001A68844208BF5960013A002101611A60EA
:1006100018685DF8044B704780B5134C134F4FF0CA
:10062000805614E0FFF718FF2369DD68281DFFF7E7
:10063000DFFFA369013BA3612368013B2360FFF750
:100640001BFF286B01F03EF8284601F03BF82368B9
:10065000002BE7D1E369012BF9D93E60BFF34F8F3F
:10066000BFF36F8FF3E700BFBC00002004ED00E094
:10067000034BD3F88020D2681268C3F884207047F7
:10068000BC000020F8B51F4CD4F88850D4F88C304A
:100690000646181D0F46FFF7ABFF50B9D4F88C2063
:1006A000D4F89030D16A01228A4023EA0203C4F8C8
:1006B0009030731C1BD0D4F88C30AD195D600DD216
:1006C000D4F88000D4F88C100431FFF777FFD4F809
:1006D0008430AB4288BFC4F88450F8BDD4F8A80079
:1006E000D4F88C10BDE8F8400431FFF767BF002F45
:1006F000E1D0D4F88C1004480431BDE8F840FFF78D
:100700004DBF00BFBC000020500100202DE9F04784
:10071000394CD4F888700137C4F88870AFB9D4F870
:100720008030D4F8A820C4F88020C4F8A830D4F8C9
:10073000AC300133C4F8AC30D4F880301B68002BE7
:1007400056D14FF0FF33C4F88430D4F884309F4240
:1007500013D20026D4F88C30DB6A03EB830304EB5E
:100760008303DA69D4F8B030022A28BF0126002BAF
:100770000CBF30460120BDE8F087DFF880900026EE
:100780004FF0010827E0D4F88030DB68DD686B6843
:1007900005F1040A9F42504627D3FFF729FFAB6AB1
:1007A00005F118000BB1FFF723FFE86AD4F8902099
:1007B00008FA00F300EB80001343514609EB800078
:1007C000C4F89030FFF7EAFED4F88C30EA6ADB6AAE
:1007D0009A4228BF0126D4F880301B68002BD2D162
:1007E0004FF0FF33C4F88430B4E7C4F88430B1E785
:1007F000FFF73EFFA9E700BFBC000020D8000020A3
:100800000D4A0023C2F8B030D2F89030B3FA83F327
:10081000DBB2C3F11F0303EB83039B00D018034635
:10082000016A496801622433994204BF4968016240
:10083000CB68C2F88C307047BC0000202DE9F0472F
:100840004FEA82080646404689461F46099D00F049
:100850002DFF002800F0D08082464C2000F026FFBB
:100860000446002800F09180A8F10408D04428F044
:100870000708C0F830A0B9F1000F00F0838009F13B
:10088000FF3300F1330209F10F0901E04B4506D0B7
:1008900013F8010F02F8010F18780028F6D1002391
:1008A00084F84330089B042B28BF042304F1040A76
:1008B000E36250469946FFF76DFE04F11800FFF71A
:1008C00069FE4FF0000CC9F10503A3612461646265
:1008D0003A4631464046C4F844C084F848C0FFF761
:1008E0008FFD206005B12C60454DFFF7B5FDAB696C
:1008F0000133AB61D5F88C30002B3AD0D5F8F0201D
:10090000E36A72B305F11C08012606FA03F703EB4C
:100910008303D5F8902008EB8300D5F8F4305146D6
:1009200017439A19C5F8F420C5F89070FFF736FE02
:10093000FFF7A2FDD5F8F03083B1D5F88C20E36A3B
:10094000D26A9A420AD22F4B4FF080521A60BFF3FC
:100950004F8FBFF36F8F3046BDE8F0873046BDE85C
:10096000F087D5F88C20D26A9A4298BFC5F88C409F
:10097000C8E7C5F88C40AB69012B0DD0E36A05F1DF
:100980001C08C1E780F834908CE7504600F09AFECE
:100990004FF0FF30BDE8F08705F11C084046FFF737
:1009A000EDFD05F13000FFF7E9FD05F14400FFF72B
:1009B000E5FD05F15800FFF7E1FD05F1B40705F18C
:1009C0006C00FFF7DBFD05F1C8063846FFF7D6FDE2
:1009D0003046FFF7D3FD05F1DC00FFF7CFFD281D02
:1009E000FFF7CCFD05F19400FFF7C8FDC5F8807056
:1009F000E36AC5F8A86087E74FF0FF30AFE700BFB4
:100A0000BC00002004ED00E070B505462D4CFFF75A
:100A100023FD002D4AD02E1D3046FFF7E9FD30B9E9
:100A2000EA6A02EB820304EB8303DB694BB3AB6A34
:100A30001BB105F11800FFF7DBFDD4F8F430D4F852
:100A40008C200133AA42C4F8F43027D0A369286B64
:100A5000013BA36100F036FE284600F033FED4F8D7
:100A600080301B68BBB94FF0FF33C4F88430FFF708
:100A700003FDD4F8F0301BB1D4F88C30AB4218D061
:100A800070BDD4F89030012101FA02F223EA02028B
:100A9000C4F89020CBE7FFF7EBFDE8E731460A48C2
:100AA000FFF77CFD236801332360E0E7D4F88C5026
:100AB000B1E7064B4FF080521A60BFF34F8FBFF380
:100AC0006F8F70BDBC000020C000002004ED00E06E
:100AD00010B50446FFF7C0FC14B9044BD3F88C40A2
:100AE000E46AFFF7C9FC204610BD00BFBC0000202F
:100AF000EFF311834FF0BF0282F31188BFF36F8FC2
:100B0000BFF34F8F10B9034AD2F88C00C06A83F349
:100B100011887047BC00002004292DE9F84328BF44
:100B2000042104460D46FFF797FC002C51D0E66ADD
:100B3000AE424AD0DFF8B0800BD2D8F88C30A34256
:100B40004BD0D8F88C30DF6AAF428CBF002701272A
:100B500005E0D8F88C703F1BB7FA87F77F09A369C7
:100B6000E562002BA4BFC5F10505A5611C4D6269B6
:100B700006EB860305EB83039A421DD104F10409B9
:100B80004846FFF735FD40B9D8F89030012202FA07
:100B900006F623EA0606C8F89060E06AD8F89020C6
:100BA0000123834000EB80001343494605EB80009E
:100BB000C8F89030FFF7F2FC3FB10A4B4FF080527B
:100BC0001A60BFF34F8FBFF36F8FBDE8F843FFF795
:100BD00053BC054BD3F88C40A9E70027BFE700BF03
:100BE000D800002004ED00E0BC00002070B50446F1
:100BF000334EFFF731FC002C4CD0251D2846FFF763
:100C0000F7FC30B9E26A02EB820306EB8303DB698F
:100C10004BB3A36A1BB104F11800FFF7E9FC2946A6
:100C20002848FFF7BBFC94F84830012B04BF002391
:100C300084F84830FFF720FCD6F8F030EBB9D6F84E
:100C40008C30A34200D070BDD6F8F0302BBBD6F864
:100C50009410B26991422CD0D6F8F83063B30123D6
:100C6000C6F8B03070BDD6F89030012101FA02F21A
:100C700023EA0202C6F89020CBE7FFF7EDFBD6F897
:100C800080301B6893B94FF0FF33C6F88430FFF70C
:100C9000F3FBD4E7D6F88C40AFE70B4B4FF0805214
:100CA0001A60BFF34F8FBFF36F8F70BDFFF7E0FC8B
:100CB000EDE7C6F88C3070BDBDE87040A0E500BF20
:100CC000BC0000205001002004ED00E0F8B51F4DED
:100CD000D5F88C3083420CD058B10446FFF7BCFBEA
:100CE000626905F194039A4204D0BDE8F840FFF729
:100CF000C3BBF8BDA36A05F1DC029342F5D0002B1B
:100D0000F3D1261D3046FFF773FCE06AD5F89070EA
:100D1000012305F11C02834000EB80003B4302EB02
:100D200080003146C5F89030FFF738FCD5F88C309C
:100D3000E26ADB6A9A42D8D3054B4FF080521A60C0
:100D4000BFF34F8FBFF36F8FCFE700BFBC00002012
:100D500004ED00E02DE9F041EFF311874FF0BF0300
:100D600083F31188BFF36F8FBFF34F8F204E42691B
:100D700006F194039A4205D0002487F31188204697
:100D8000BDE8F081846A06F1DC039C42F4D0002CBB
:100D9000F2D1D6F8F820054622BBD6F88C30C16ACD
:100DA000DB6A00F10408994228BF0124404634BFA1
:100DB0001446C6F8B040FFF71BFCEA6A0D48D6F8A7
:100DC00090500123934002EB82022B43414600EBFB
:100DD0008200C6F89030FFF7E1FB87F311882046C8
:100DE000BDE8F08100F118011846FFF7D7FBC4E712
:100DF000BC000020D800002030B5144D144915481F
:100E000083B005F1FC030024CDE900438022234692
:100E1000FFF714FD012803D00F4B1B6803B030BD52
:100E20004FF0BF0383F31188BFF36F8FBFF34F8F72
:100E30004FF0FF33C5F88430C5F8F000C5F888409E
:100E4000FFF774FB044B1B6803B030BDBC000020EF
:100E5000F01F000819060008180000204FF0BF031B
:100E600083F31188BFF36F8FBFF34F8F024B0022C4
:100E7000C3F8F020FFF7EEBABC000020034AD2F816
:100E8000F8300133C2F8F830704700BFBC000020D2
:100E90002DE9F0413C4CFFF7DFFAD4F8F830013B84
:100EA000C4F8F830D4F8F850002D63D1A369002BB2
:100EB00060D0012604F11C07D4F8DC3033B3D4F839
:100EC000E830DD6805F1040805F11800FFF790FB34
:100ED0004046FFF78DFBE86AD4F8902006FA00F34D
:100EE00000EB80001343414607EB8000C4F89030CC
:100EF000FFF754FBD4F88C30EA6ADB6A9A42DBD302
:100F0000C4F8B060D4F8DC30002BD8D13DB1D4F8AF
:100F100080301B68A3BB4FF0FF33C4F88430D4F893
:100F20000051B5B1012606E0D4F800310133C4F810
:100F30000031013D0BD0D4F8F830002BF4D1FFF78D
:100F4000E5FB0028F5D0013DC4F8B060F3D1C4F84A
:100F50000051D4F8B0306BB10C4B4FF080521A6096
:100F6000BFF34F8FBFF36F8F0124FFF785FA204641
:100F7000BDE8F0810024FFF77FFA2046BDE8F0814C
:100F8000FFF776FBCBE700BFBC00002004ED00E0DC
:100F9000144AD2F8F830013310B5C2F8F8300368BB
:100FA000D2F8884059182CBF01220022A3420160C8
:100FB0000ED972B90024FFF76BFF38B90A4B4FF016
:100FC00080521A60BFF34F8FBFF36F8F204610BD62
:100FD0000AB98C42EED2081B0021FFF753FB012413
:100FE000E9E700BFBC00002004ED00E008B540B90F
:100FF0000B4B4FF080521A60BFF34F8FBFF36F8FD0
:1010000008BD084AD2F8F8300133C2F8F8300021A0
:10101000FFF738FBFFF73CFF0028E9D008BD00BF11
:1010200004ED00E0BC000020014BD3F888007047BD
:10103000BC000020014BD3F888007047BC000020A2
:10104000014B9869704700BFBC00002010B9024BEB
:10105000D3F88C0034307047BC000020064BD3F826
:10106000F8200132C3F8F820D3F800211044C3F867
:101070000001FFF70DBF00BFBC000020064BD3F8F6
:10108000F8200AB9FFF742BBD3F800210132C3F8B8
:1010900000210020704700BFBC000020044BD3F8A3
:1010A000F8200AB9FFF7ACBB0122C3F8B0207047A3
:1010B000BC00002010B5074BD3F88C300C4603F170
:1010C0001801FFF77BFA20460121BDE81040FFF729
:1010D000D9BA00BFBC00002038B5094BD3F88C50FA
:1010E000D3F88C3041F000411446A96103F1180196
:1010F000FFF754FA20460121BDE83840FFF7C2BA95
:10110000BC000020F8B5C368174CDD6805F118066F
:101110003046FFF76DFAD4F8F830FBB92E1D304693
:10112000FFF766FAE86AD4F890700123834004F16F
:101130001C0200EB80003B43314602EB8000C4F808
:101140009030FFF72BFAD4F88C30EA6ADB6A9A42C7
:1011500086BF0120C4F8B0000020F8BD314604F17C
:10116000DC00FFF71BFAEEE7BC000020F8B5C5680D
:10117000124C41F0004101602E1DFFF739FA304654
:10118000FFF736FAE86AD4F890C0012704F11C0290
:1011900007FA00F300EB800043EA0C0302EB800047
:1011A0003146C4F89030FFF7F9F9D4F88C30EA6A88
:1011B000DB6A9A4288BFC4F8B070F8BDBC0000205A
:1011C00010B50446FFF748F9054BD3F8AC20D3F827
:1011D0008830C4E90023BDE81040FFF74DB900BFD7
:1011E000BC000020034BD3F8AC20D3F88830C0E912
:1011F00000237047BC000020F8B50E460546FFF7F7
:101200002BF93368144A591CD2F8884011D0D5E91B
:101210000071D2F8AC00874201D0A14202D9641A11
:10122000A3420BD8002333600124FFF725F92046A1
:10123000F8BD0024FFF720F92046F8BDD2F8AC1025
:10124000D2F888201B1B33600024C5E90012FFF789
:1012500013F92046F8BD00BFBC000020024B01225C
:10126000C3F8B020704700BFBC000020064AD2F887
:101270008C10D2F88C30D2F88C20DB6A8869C3F1EC
:1012800005039361704700BFBC0000202DE9F041C9
:10129000224D06460F469046FFF7DEF8D5F88C3013
:1012A00006F1100403EB84035B6843B9D5F88C3076
:1012B0003344012183F84810B8F1000F21D1FFF722
:1012C000DBF8FFF7C9F8D5F88C30A4002344D3F835
:1012D0000480B8F1000F06D0D5F88C301C446FB9EB
:1012E00008F1FF336360D5F88C303344002283F873
:1012F0004820FFF7C1F84046BDE8F0810023636055
:10130000F1E74046FFF7BEF9054B4FF080521A60F7
:10131000BFF34F8FBFF36F8FD1E700BFBC0000203A
:1013200004ED00E02DE9F041294D04461F468846B2
:101330001646FFF791F8D5F88C30234493F84830DF
:10134000022B0FD0D5F88C3003EB840301215A6CAB
:1013500022EA08025A64D5F88C30234483F84810F6
:10136000069BFBB9FFF788F8FFF776F83FB1D5F891
:101370008C3004F1100203EB82035B683B60D5F80C
:101380008C30234493F84830022B17D00027D5F82F
:101390008C301C44002384F84830FFF76DF8384641
:1013A000BDE8F0811846FFF76DF90A4B4FF0805207
:1013B0001A60BFF34F8FBFF36F8FD3E7D5F88C3030
:1013C00003EB840301275A6C22EA06065E64DEE71B
:1013D000BC00002004ED00E02DE9F041DDF81880AC
:1013E00006460D4617461C46FFF736F8B8F1000FC3
:1013F00006D005F1100306EB83035B68C8F80030E4
:101400007219631E92F848400221E4B282F8481033
:10141000032B08D8DFE803F00241110F06EB850526
:101420006B6C1F436F64012C0DD00124FFF724F86F
:101430002046BDE8F081022C35D0103506EB85053D
:10144000012C6F60F1D1371D184D3846FFF7D0F8E9
:10145000F06AD5F890C005F11C0204FA00F300EB25
:10146000800043EA0C0302EB80003946C5F8903057
:10147000FFF794F8D5F88C30F26ADB6A9A42D4D937
:101480000B4B4FF080521A60BFF34F8FBFF36F8F3B
:10149000FEF7F2FF2046BDE8F08106EB85056B6C98
:1014A00001336B64BFE70024C0E700BFBC0000202D
:1014B00004ED00E02DE9F041069DEFF311864FF0B9
:1014C000BF0484F31188BFF36F8FBFF34F8F2DB12B
:1014D00001F1100400EB840464682C6045180227B5
:1014E00095F8484085F84870013BE4B2032B08D8D2
:1014F000DFE803F00233100E00EB81014B6C1A435E
:101500004A64012C0CD0012086F31188BDE8F081DB
:10151000022C3ED0103100EB8101012C4A60F2D147
:101520001D4DD5F8F8300746EBB100F1180105F173
:10153000DC00FFF733F8D5F88C30FA6ADB6A9A42A0
:10154000E1D9079B13B1079A012313600120C5F865
:10155000B00086F31188BDE8F08100EB81014B6C8F
:1015600001334B64CDE700F104084046FFF740F833
:10157000F86AD5F89020844005F11C0300EB800048
:101580001443414603EB8000C5F89040FFF706F88E
:10159000D1E70020B8E700BFBC0000202DE9F843E8
:1015A000EFF311854FF0BF0383F31188BFF36F8F03
:1015B000BFF34F8F4318022600EB810193F8484098
:1015C00083F848604B6CE4B20133012C4B6403D0C8
:1015D00085F31188BDE8F8831A4ED6F8F8309046A6
:1015E0000746C3B100F1180106F1DC00FEF7D6FF93
:1015F000D6F88C30FA6ADB6A9A42E9D9B8F1000F62
:1016000002D00123C8F800300123C6F8B03085F3BA
:101610001188BDE8F88300F104094846FEF7E8FFA9
:10162000F86AD6F89020844006F11C0300EB800095
:101630001443494603EB8000C6F89040FEF7AEFF26
:10164000D6E700BFBC00002038B50D4680B1044687
:101650002C44FEF701FF94F84830022B05BF00230D
:1016600084F8483000240124FEF706FF204638BDE8
:10167000014BD3F88C40EBE7BC00002070B50E4660
:10168000154668B10446FEF7E7FE04EB86014C6C94
:101690004B6C23EA05034B64FEF7EEFE204670BD5B
:1016A000014BD3F88C40EEE7BC00002010B5044697
:1016B000FFF7E4FB204600F0BBFB0446FFF7E8FB26
:1016C000204610BD50B110B50446FFF7D7FB2046A9
:1016D00000F0B6FBBDE81040FFF7DABB704700BF73
:1016E0000D4B0E4A196841F00101196059680A4012
:1016F0005A601A6822F0847222F480321A601A68E2
:1017000022F480221A605A684FF41F0122F4FE026C
:101710005A609960704700BF001002400000FFF857
:101720000C4B1A6822F480321A601A68B0F5803FB8
:1017300022F480221A6008D0B0F5802F04D11A68F4
:1017400042F4A0221A60704770471A6842F480324F
:101750001A6070470010024082B00023094A0193CA
:10176000136813F4003F019B03F101030193019BF4
:1017700002D1B3F5A06FF3D1024B1868C0F340401B
:1017800002B0704700100240034A136823F0F803C8
:1017900043EAC0001060704700100240014B18601F
:1017A000704700BF00004242034A536823F47C1391
:1017B000194301435160704700100240014B18600B
:1017C000704700BF60004242034A536823F003039E
:1017D00018435060704700BF00100240024B586829
:1017E00000F00C00704700BF00100240034A53682D
:1017F00023F0F00318435060704700BF0010024010
:10180000034A536823F4E06318435060704700BFF5
:1018100000100240034A536823F4605343EAC000B7
:101820005060704700100240044A137819B923EA47
:101830000000107070471843107070470910024084
:10184000014B1860704700BFD8004242034A5368FA
:1018500023F4404318435060704700BF001002401B
:10186000064B002201281A701A7005D0042802D1F4
:1018700005221A7070477047187070472010024098
:10188000014B1860704700BF80044242024A136A4D
:1018900018431062704700BF00100240014B1860EF
:1018A000704700BF3C0442421E4A536803F00C03D9
:1018B000082B10B40FD153685168C3F38343C90395
:1018C00003F1020329D55268920326D4164A02FB7B
:1018D00003F3036001E0144B03601249134A4C68A0
:1018E000C4F30314145DE34043604C68C4F3022462
:1018F000145D23FA04F484604C68C4F3C224145DBC
:10190000E340C36049685DF8044BC1F381310A4488
:10191000127CB3FBF2F303617047054A02FB03F349
:101920000360DAE70010024000127A001C00002079
:1019300000093D00044A536919B923EA00005061C7
:10194000704718435061704700100240044A936981
:1019500019B923EA000090617047184390617047FD
:1019600000100240044AD36919B923EA0000D0618B
:1019700070471843D061704700100240044AD36892
:1019800019B923EA0000D06070471843D06070474F
:1019900000100240044A136919B923EA00001061DB
:1019A000704718431061704700100240014B1860E7
:1019B000704700BF40044242014B1860704700BFAF
:1019C0004C004242014B1870704700BF07100240A4
:1019D0004309012B0BD0022B094B0CBF1B6A5B6A1E
:1019E00000F01F0023FA00F000F001007047044BE4
:1019F0001B6800F01F0023FA00F000F001007047A0
:101A000000100240024A536A43F0807353627047E9
:101A100000100240034B9B68184214BF01200020B5
:101A2000704700BF00100240014B1870704700BFA4
:101A30000A10024008B52F4B98421CD02E4B9842FA
:101A400023D02E4B98422AD02D4B984231D02D4B8B
:101A5000984206D02C4B984241D02C4B984232D021
:101A600008BD01214020FFF789FF00214020BDE88B
:101A70000840FFF783BF01210420FFF77FFF00210B
:101A80000420BDE80840FFF779BF01210820FFF7D7
:101A900075FF00210820BDE80840FFF76FBF012156
:101AA0001020FFF76BFF00211020BDE80840FFF772
:101AB00065BF01212020FFF761FF00212020BDE844
:101AC0000840FFF75BBF01214FF48070FFF756FF1E
:101AD00000214FF48070BDE80840FFF74FBF01219F
:101AE0008020FFF74BFF00218020BDE80840FFF772
:101AF00045BF00BF00080140000C0140001001403C
:101B00000014014000180140001C01400020014069
:101B100008B501210846FFF731FF00210120BDE88B
:101B20000840FFF72BBF00BF2DE9F041CD78EB0651
:101B300048BF8B78098805F00F0748BF1F4311F095
:101B4000FF0F21D0066800234FF0010C4FF00F0863
:101B500002E00133082B16D00CFA03F232EA01043A
:101B6000F7D19C0008FA04FE26EA0E0607FA04F4F0
:101B7000282D46EA040632D0482D03F1010308BFA0
:101B80000261082BE8D10660FF2924D946680823A2
:101B90004FF0010C4FF00F0802E00133102B19D069
:101BA0000CFA03F434EA0102F7D103F18042083A57
:101BB000920008FA02FE26EA0E0607FA02F2282D23
:101BC00046EA020609D0482D03F1010308BF04616B
:101BD000102BE5D14660BDE8F0814461DDE742614C
:101BE000B7E700BF4FF6FF71022204230180827025
:101BF000C37070478368194214BF012000207047EA
:101C0000806880B2704700BFC368194214BF0120CA
:101C100000207047C06880B2704700BF0161704704
:101C2000416170470AB9416170470161704700BF67
:101C3000C160704741F4803383618161836183694E
:101C400083697047064A136810B44FF680742340C6
:101C5000194341EA001111605DF8044B704700BF61
:101C600000000140014B1860704700BF1C0020427B
:101C70000028194B00F44012B4BFDB695B68B2F571
:101C8000401F30B484B21ED0C20213D5C0F3034546
:101C90000322AA4023EA020343F0706319B1420D04
:101CA0001201944023430C4A0028B4BFD36153600F
:101CB00030BC7047420D120104FA02F223EA02031B
:101CC00043F07063EAE7044D6A6822F0706223F023
:101CD00070636A60E2E700BF0000014001F0FC03AE
:101CE00003F1804303F5803301F0030110B49A68D7
:101CF00089000F248C4022EA04029A609A685DF8F9
:101D0000044B00FA01F1114399607047014B1860D0
:101D1000704700BFDC00204200B583B0FEF7A2FA96
:101D2000154B1649164A5A60F0200722002581F803
:101D3000230001269D60134C1A60FEF759FAFEF746
:101D40003BFA32464FF400510F48FFF76BFF2B462A
:101D5000CDE9006464220D490D480434FEF76EFDA0
:101D60002B4664220B490C48CDE90064FEF766FD62
:101D7000FFF742F8FEE700BF10E000E000ED00E0F2
:101D80003E190100B000002000100140E01F0008D3
:101D900051010008E81F000885010008002103E048
:101DA0000B4B5B58435004310A480B4B42189A4284
:101DB000F6D30A4A02E0002342F8043B084B9A4259
:101DC000F9D3FEF74FFA00F00FF8FFF7A5FF7047C1
:101DD000182000080000002094000020940000203B
:101DE000D0010020FEE7000070B50D4E0D4CA41B85
:101DF000A4100025A54209D10B4E0C4C00F0FCF8B4
:101E0000A41BA4100025A54205D170BD56F82530AD
:101E100098470135EEE756F8253098470135F2E747
:101E200010200008102000081020000814200008CE
:101E3000024B0146186800F059B800BF300000207E
:101E4000024B0146186800F003B800BF30000020C4
:101E500038B50546002945D051F8043C0C1F002B2D
:101E6000B8BFE41800F0ACF81F4A1368104633B945
:101E7000636014602846BDE8384000F0A2B8A34271
:101E80000CD921686218934204BF1A685B686360CA
:101E900004BF521822600460ECE713465A680AB186
:101EA000A242FAD919685818A0420BD120680144FF
:101EB000581882421960DDD1106852685A60014496
:101EC0001960D7E702D90C232B60D3E720682118CB
:101ED0008A4204BF11685268626004BF0918216019
:101EE0005C60C7E738BD00BFC001002070B5CD1CE5
:101EF00025F0030508350C2D38BF0C25002D0646AE
:101F000001DBA94203D90C233360002070BD00F02F
:101F100057F8214A1468214691B9204C23681BB90F
:101F2000304600F03DF820602946304600F038F891
:101F3000431C24D10C233360304600F042F8E4E720
:101F40000B685B1B18D40B2B0FD90B60CD50CC1832
:101F5000304600F036F804F10B00231D20F0070096
:101F6000C31AD3D05A42E250D0E78C424B6816BF16
:101F7000636013600C46EBE70C464968CCE7C41C71
:101F800024F00304A04205D0211A304600F008F8DE
:101F90000130CFD02560DBE7C0010020C401002064
:101FA00038B5064C002305460846236000F00AF8C1
:101FB000431C02D1236803B12B6038BDCC01002043
:101FC00070477047044A05491368002B08BF0B4649
:101FD0001844106018467047C8010020D001002046
:101FE0007461736B310000007461736B3200000028
:101FF00049444C4500000000F8B500BFF8BC08BCDF
:102000009E467047F8B500BFF8BC08BC9E467047B6
:04201000350100088E
:0420140011010008AE
:102018000000000000000000010203040607080990
:1020280000A24A04AAAAAAAA04000000000000000C
:102038000102030401020304060708090204060852
:102048003400002000000000000000000000000034
:102058000000000000000000000000000000000078
:102068000000000000000000000000000000000068
:102078000000000000000000000000000000000058
:102088000000000000000000000000000000000048
:102098000000000000000000000000000000000038
:0420A8000000000034
:0400000508001D9D35
:00000001FF
